{
  "_format": "hh-sol-artifact-1",
  "contractName": "MyEpicNFT",
  "sourceName": "contracts/MyEpicNFT.sol",
  "abi": [
    {
      "inputs": [],
      "stateMutability": "nonpayable",
      "type": "constructor"
    },
    {
      "anonymous": false,
      "inputs": [
        {
          "indexed": true,
          "internalType": "address",
          "name": "owner",
          "type": "address"
        },
        {
          "indexed": true,
          "internalType": "address",
          "name": "approved",
          "type": "address"
        },
        {
          "indexed": true,
          "internalType": "uint256",
          "name": "tokenId",
          "type": "uint256"
        }
      ],
      "name": "Approval",
      "type": "event"
    },
    {
      "anonymous": false,
      "inputs": [
        {
          "indexed": true,
          "internalType": "address",
          "name": "owner",
          "type": "address"
        },
        {
          "indexed": true,
          "internalType": "address",
          "name": "operator",
          "type": "address"
        },
        {
          "indexed": false,
          "internalType": "bool",
          "name": "approved",
          "type": "bool"
        }
      ],
      "name": "ApprovalForAll",
      "type": "event"
    },
    {
      "anonymous": false,
      "inputs": [
        {
          "indexed": false,
          "internalType": "address",
          "name": "sender",
          "type": "address"
        },
        {
          "indexed": false,
          "internalType": "uint256",
          "name": "tokenId",
          "type": "uint256"
        }
      ],
      "name": "NewEpicNFTMinted",
      "type": "event"
    },
    {
      "anonymous": false,
      "inputs": [
        {
          "indexed": true,
          "internalType": "address",
          "name": "from",
          "type": "address"
        },
        {
          "indexed": true,
          "internalType": "address",
          "name": "to",
          "type": "address"
        },
        {
          "indexed": true,
          "internalType": "uint256",
          "name": "tokenId",
          "type": "uint256"
        }
      ],
      "name": "Transfer",
      "type": "event"
    },
    {
      "inputs": [
        {
          "internalType": "address",
          "name": "to",
          "type": "address"
        },
        {
          "internalType": "uint256",
          "name": "tokenId",
          "type": "uint256"
        }
      ],
      "name": "approve",
      "outputs": [],
      "stateMutability": "nonpayable",
      "type": "function"
    },
    {
      "inputs": [
        {
          "internalType": "address",
          "name": "owner",
          "type": "address"
        }
      ],
      "name": "balanceOf",
      "outputs": [
        {
          "internalType": "uint256",
          "name": "",
          "type": "uint256"
        }
      ],
      "stateMutability": "view",
      "type": "function"
    },
    {
      "inputs": [
        {
          "internalType": "uint256",
          "name": "tokenId",
          "type": "uint256"
        }
      ],
      "name": "getApproved",
      "outputs": [
        {
          "internalType": "address",
          "name": "",
          "type": "address"
        }
      ],
      "stateMutability": "view",
      "type": "function"
    },
    {
      "inputs": [],
      "name": "getTotalMintedNFTs",
      "outputs": [
        {
          "internalType": "uint256",
          "name": "",
          "type": "uint256"
        }
      ],
      "stateMutability": "view",
      "type": "function"
    },
    {
      "inputs": [
        {
          "internalType": "address",
          "name": "owner",
          "type": "address"
        },
        {
          "internalType": "address",
          "name": "operator",
          "type": "address"
        }
      ],
      "name": "isApprovedForAll",
      "outputs": [
        {
          "internalType": "bool",
          "name": "",
          "type": "bool"
        }
      ],
      "stateMutability": "view",
      "type": "function"
    },
    {
      "inputs": [],
      "name": "makeAnEpicNFT",
      "outputs": [],
      "stateMutability": "nonpayable",
      "type": "function"
    },
    {
      "inputs": [],
      "name": "name",
      "outputs": [
        {
          "internalType": "string",
          "name": "",
          "type": "string"
        }
      ],
      "stateMutability": "view",
      "type": "function"
    },
    {
      "inputs": [
        {
          "internalType": "uint256",
          "name": "tokenId",
          "type": "uint256"
        }
      ],
      "name": "ownerOf",
      "outputs": [
        {
          "internalType": "address",
          "name": "",
          "type": "address"
        }
      ],
      "stateMutability": "view",
      "type": "function"
    },
    {
      "inputs": [
        {
          "internalType": "uint256",
          "name": "tokenId",
          "type": "uint256"
        }
      ],
      "name": "pickRandomFirstWord",
      "outputs": [
        {
          "internalType": "string",
          "name": "",
          "type": "string"
        }
      ],
      "stateMutability": "view",
      "type": "function"
    },
    {
      "inputs": [
        {
          "internalType": "uint256",
          "name": "tokenId",
          "type": "uint256"
        }
      ],
      "name": "pickRandomSecondWord",
      "outputs": [
        {
          "internalType": "string",
          "name": "",
          "type": "string"
        }
      ],
      "stateMutability": "view",
      "type": "function"
    },
    {
      "inputs": [
        {
          "internalType": "uint256",
          "name": "tokenId",
          "type": "uint256"
        }
      ],
      "name": "pickRandomThirdWord",
      "outputs": [
        {
          "internalType": "string",
          "name": "",
          "type": "string"
        }
      ],
      "stateMutability": "view",
      "type": "function"
    },
    {
      "inputs": [
        {
          "internalType": "address",
          "name": "from",
          "type": "address"
        },
        {
          "internalType": "address",
          "name": "to",
          "type": "address"
        },
        {
          "internalType": "uint256",
          "name": "tokenId",
          "type": "uint256"
        }
      ],
      "name": "safeTransferFrom",
      "outputs": [],
      "stateMutability": "nonpayable",
      "type": "function"
    },
    {
      "inputs": [
        {
          "internalType": "address",
          "name": "from",
          "type": "address"
        },
        {
          "internalType": "address",
          "name": "to",
          "type": "address"
        },
        {
          "internalType": "uint256",
          "name": "tokenId",
          "type": "uint256"
        },
        {
          "internalType": "bytes",
          "name": "_data",
          "type": "bytes"
        }
      ],
      "name": "safeTransferFrom",
      "outputs": [],
      "stateMutability": "nonpayable",
      "type": "function"
    },
    {
      "inputs": [
        {
          "internalType": "address",
          "name": "operator",
          "type": "address"
        },
        {
          "internalType": "bool",
          "name": "approved",
          "type": "bool"
        }
      ],
      "name": "setApprovalForAll",
      "outputs": [],
      "stateMutability": "nonpayable",
      "type": "function"
    },
    {
      "inputs": [
        {
          "internalType": "bytes4",
          "name": "interfaceId",
          "type": "bytes4"
        }
      ],
      "name": "supportsInterface",
      "outputs": [
        {
          "internalType": "bool",
          "name": "",
          "type": "bool"
        }
      ],
      "stateMutability": "view",
      "type": "function"
    },
    {
      "inputs": [],
      "name": "symbol",
      "outputs": [
        {
          "internalType": "string",
          "name": "",
          "type": "string"
        }
      ],
      "stateMutability": "view",
      "type": "function"
    },
    {
      "inputs": [
        {
          "internalType": "uint256",
          "name": "tokenId",
          "type": "uint256"
        }
      ],
      "name": "tokenURI",
      "outputs": [
        {
          "internalType": "string",
          "name": "",
          "type": "string"
        }
      ],
      "stateMutability": "view",
      "type": "function"
    },
    {
      "inputs": [
        {
          "internalType": "address",
          "name": "from",
          "type": "address"
        },
        {
          "internalType": "address",
          "name": "to",
          "type": "address"
        },
        {
          "internalType": "uint256",
          "name": "tokenId",
          "type": "uint256"
        }
      ],
      "name": "transferFrom",
      "outputs": [],
      "stateMutability": "nonpayable",
      "type": "function"
    }
  ],
  "bytecode": "0x608060405260405180610160016040528061012f8152602001620041d061012f9139600890805190602001906200003892919062000667565b506040518060c001604052806040518060400160405280600681526020017f427572676572000000000000000000000000000000000000000000000000000081525081526020016040518060400160405280600581526020017f467269657300000000000000000000000000000000000000000000000000000081525081526020016040518060400160405280600981526020017f5065707065726f6e69000000000000000000000000000000000000000000000081525081526020016040518060400160405280600481526020017f456767730000000000000000000000000000000000000000000000000000000081525081526020016040518060400160405280600681526020017f436f66666565000000000000000000000000000000000000000000000000000081525081526020016040518060400160405280600481526020017f43616b65000000000000000000000000000000000000000000000000000000008152508152506009906006620001b6929190620006f8565b506040518060c001604052806040518060400160405280600481526020017f436f6f6c0000000000000000000000000000000000000000000000000000000081525081526020016040518060400160405280600581526020017f427261766500000000000000000000000000000000000000000000000000000081525081526020016040518060400160405280600681526020017f537475706964000000000000000000000000000000000000000000000000000081525081526020016040518060400160405280600581526020017f486170707900000000000000000000000000000000000000000000000000000081525081526020016040518060400160405280600381526020017f536164000000000000000000000000000000000000000000000000000000000081525081526020016040518060400160405280600581526020017f426f726564000000000000000000000000000000000000000000000000000000815250815250600a90600662000334929190620006f8565b506040518060c001604052806040518060400160405280600781526020017f416464726573730000000000000000000000000000000000000000000000000081525081526020016040518060400160405280600681526020017f576169746572000000000000000000000000000000000000000000000000000081525081526020016040518060400160405280600681526020017f537562757262000000000000000000000000000000000000000000000000000081525081526020016040518060400160405280600981526020017f4d6973657261626c65000000000000000000000000000000000000000000000081525081526020016040518060400160405280600881526020017f456c656374726f6e00000000000000000000000000000000000000000000000081525081526020016040518060400160405280600681526020017f436172726f740000000000000000000000000000000000000000000000000000815250815250600b906006620004b2929190620006f8565b506000600c55348015620004c557600080fd5b506040518060400160405280600981526020017f5371756172654e465400000000000000000000000000000000000000000000008152506040518060400160405280600681526020017f535155415245000000000000000000000000000000000000000000000000000081525081600090805190602001906200054a92919062000667565b5080600190805190602001906200056392919062000667565b50505062000595604051806060016040528060248152602001620042ff602491396200059b60201b6200111a1760201c565b62000919565b6200063b81604051602401620005b291906200082d565b6040516020818303038152906040527f41304fac000000000000000000000000000000000000000000000000000000007bffffffffffffffffffffffffffffffffffffffffffffffffffffffff19166020820180517bffffffffffffffffffffffffffffffffffffffffffffffffffffffff83818316178352505050506200063e60201b60201c565b50565b60008151905060006a636f6e736f6c652e6c6f679050602083016000808483855afa5050505050565b8280546200067590620008a3565b90600052602060002090601f016020900481019282620006995760008555620006e5565b82601f10620006b457805160ff1916838001178555620006e5565b82800160010185558215620006e5579182015b82811115620006e4578251825591602001919060010190620006c7565b5b509050620006f491906200075f565b5090565b8280548282559060005260206000209081019282156200074c579160200282015b828111156200074b5782518290805190602001906200073a92919062000667565b509160200191906001019062000719565b5b5090506200075b91906200077e565b5090565b5b808211156200077a57600081600090555060010162000760565b5090565b5b80821115620007a25760008181620007989190620007a6565b506001016200077f565b5090565b508054620007b490620008a3565b6000825580601f10620007c85750620007e9565b601f016020900490600052602060002090810190620007e891906200075f565b5b50565b6000620007f98262000851565b6200080581856200085c565b9350620008178185602086016200086d565b620008228162000908565b840191505092915050565b60006020820190508181036000830152620008498184620007ec565b905092915050565b600081519050919050565b600082825260208201905092915050565b60005b838110156200088d57808201518184015260208101905062000870565b838111156200089d576000848401525b50505050565b60006002820490506001821680620008bc57607f821691505b60208210811415620008d357620008d2620008d9565b5b50919050565b7f4e487b7100000000000000000000000000000000000000000000000000000000600052602260045260246000fd5b6000601f19601f8301169050919050565b6138a780620009296000396000f3fe608060405234801561001057600080fd5b50600436106101165760003560e01c806370a08231116100a2578063b88d4fde11610071578063b88d4fde14610305578063c575757a14610321578063c87b56dd14610351578063de9d132f14610381578063e985e9c51461038b57610116565b806370a082311461026b57806395d89b411461029b578063a22cb465146102b9578063b187301f146102d557610116565b806323b872dd116100e957806323b872dd146101b55780632de38d68146101d157806342842e0e146102015780635a2e65041461021d5780636352211e1461023b57610116565b806301ffc9a71461011b57806306fdde031461014b578063081812fc14610169578063095ea7b314610199575b600080fd5b610135600480360381019061013091906124fb565b6103bb565b604051610142919061311d565b60405180910390f35b61015361049d565b6040516101609190613138565b60405180910390f35b610183600480360381019061017e919061254d565b61052f565b604051610190919061308d565b60405180910390f35b6101b360048036038101906101ae91906124bf565b6105b4565b005b6101cf60048036038101906101ca91906123b9565b6106cc565b005b6101eb60048036038101906101e6919061254d565b61072c565b6040516101f89190613138565b60405180910390f35b61021b600480360381019061021691906123b9565b61084a565b005b61022561086a565b6040516102329190613398565b60405180910390f35b6102556004803603810190610250919061254d565b610874565b604051610262919061308d565b60405180910390f35b61028560048036038101906102809190612354565b610926565b6040516102929190613398565b60405180910390f35b6102a36109de565b6040516102b09190613138565b60405180910390f35b6102d360048036038101906102ce9190612483565b610a70565b005b6102ef60048036038101906102ea919061254d565b610a86565b6040516102fc9190613138565b60405180910390f35b61031f600480360381019061031a9190612408565b610ba4565b005b61033b6004803603810190610336919061254d565b610c06565b6040516103489190613138565b60405180910390f35b61036b6004803603810190610366919061254d565b610d24565b6040516103789190613138565b60405180910390f35b610389610e76565b005b6103a560048036038101906103a0919061237d565b611086565b6040516103b2919061311d565b60405180910390f35b60007f80ac58cd000000000000000000000000000000000000000000000000000000007bffffffffffffffffffffffffffffffffffffffffffffffffffffffff1916827bffffffffffffffffffffffffffffffffffffffffffffffffffffffff1916148061048657507f5b5e139f000000000000000000000000000000000000000000000000000000007bffffffffffffffffffffffffffffffffffffffffffffffffffffffff1916827bffffffffffffffffffffffffffffffffffffffffffffffffffffffff1916145b806104965750610495826111b3565b5b9050919050565b6060600080546104ac90613637565b80601f01602080910402602001604051908101604052809291908181526020018280546104d890613637565b80156105255780601f106104fa57610100808354040283529160200191610525565b820191906000526020600020905b81548152906001019060200180831161050857829003601f168201915b5050505050905090565b600061053a8261121d565b610579576040517f08c379a0000000000000000000000000000000000000000000000000000000008152600401610570906132f8565b60405180910390fd5b6004600083815260200190815260200160002060009054906101000a900473ffffffffffffffffffffffffffffffffffffffff169050919050565b60006105bf82610874565b90508073ffffffffffffffffffffffffffffffffffffffff168373ffffffffffffffffffffffffffffffffffffffff161415610630576040517f08c379a000000000000000000000000000000000000000000000000000000000815260040161062790613358565b60405180910390fd5b8073ffffffffffffffffffffffffffffffffffffffff1661064f611289565b73ffffffffffffffffffffffffffffffffffffffff16148061067e575061067d81610678611289565b611086565b5b6106bd576040517f08c379a00000000000000000000000000000000000000000000000000000000081526004016106b490613238565b60405180910390fd5b6106c78383611291565b505050565b6106dd6106d7611289565b8261134a565b61071c576040517f08c379a000000000000000000000000000000000000000000000000000000000815260040161071390613378565b60405180910390fd5b610727838383611428565b505050565b6060600061076061073c84611684565b60405160200161074c9190613049565b604051602081830303815290604052611831565b90506009805490508161077391906136b2565b9050600981815481106107af577f4e487b7100000000000000000000000000000000000000000000000000000000600052603260045260246000fd5b9060005260206000200180546107c490613637565b80601f01602080910402602001604051908101604052809291908181526020018280546107f090613637565b801561083d5780601f106108125761010080835404028352916020019161083d565b820191906000526020600020905b81548152906001019060200180831161082057829003601f168201915b5050505050915050919050565b61086583838360405180602001604052806000815250610ba4565b505050565b6000600c54905090565b6000806002600084815260200190815260200160002060009054906101000a900473ffffffffffffffffffffffffffffffffffffffff169050600073ffffffffffffffffffffffffffffffffffffffff168173ffffffffffffffffffffffffffffffffffffffff16141561091d576040517f08c379a000000000000000000000000000000000000000000000000000000000815260040161091490613278565b60405180910390fd5b80915050919050565b60008073ffffffffffffffffffffffffffffffffffffffff168273ffffffffffffffffffffffffffffffffffffffff161415610997576040517f08c379a000000000000000000000000000000000000000000000000000000000815260040161098e90613258565b60405180910390fd5b600360008373ffffffffffffffffffffffffffffffffffffffff1673ffffffffffffffffffffffffffffffffffffffff168152602001908152602001600020549050919050565b6060600180546109ed90613637565b80601f0160208091040260200160405190810160405280929190818152602001828054610a1990613637565b8015610a665780601f10610a3b57610100808354040283529160200191610a66565b820191906000526020600020905b815481529060010190602001808311610a4957829003601f168201915b5050505050905090565b610a82610a7b611289565b8383611864565b5050565b60606000610aba610a9684611684565b604051602001610aa69190612fe2565b604051602081830303815290604052611831565b9050600a8054905081610acd91906136b2565b9050600a8181548110610b09577f4e487b7100000000000000000000000000000000000000000000000000000000600052603260045260246000fd5b906000526020600020018054610b1e90613637565b80601f0160208091040260200160405190810160405280929190818152602001828054610b4a90613637565b8015610b975780601f10610b6c57610100808354040283529160200191610b97565b820191906000526020600020905b815481529060010190602001808311610b7a57829003601f168201915b5050505050915050919050565b610bb5610baf611289565b8361134a565b610bf4576040517f08c379a0000000000000000000000000000000000000000000000000000000008152600401610beb90613378565b60405180910390fd5b610c00848484846119d1565b50505050565b60606000610c3a610c1684611684565b604051602001610c269190612fc0565b604051602081830303815290604052611831565b9050600b8054905081610c4d91906136b2565b9050600b8181548110610c89577f4e487b7100000000000000000000000000000000000000000000000000000000600052603260045260246000fd5b906000526020600020018054610c9e90613637565b80601f0160208091040260200160405190810160405280929190818152602001828054610cca90613637565b8015610d175780601f10610cec57610100808354040283529160200191610d17565b820191906000526020600020905b815481529060010190602001808311610cfa57829003601f168201915b5050505050915050919050565b6060610d2f8261121d565b610d6e576040517f08c379a0000000000000000000000000000000000000000000000000000000008152600401610d65906132d8565b60405180910390fd5b6000600660008481526020019081526020016000208054610d8e90613637565b80601f0160208091040260200160405190810160405280929190818152602001828054610dba90613637565b8015610e075780601f10610ddc57610100808354040283529160200191610e07565b820191906000526020600020905b815481529060010190602001808311610dea57829003601f168201915b505050505090506000610e18611a2d565b9050600081511415610e2e578192505050610e71565b600082511115610e63578082604051602001610e4b929190612f3c565b60405160208183030381529060405292505050610e71565b610e6c84611a44565b925050505b919050565b6064600c5410610e8557600080fd5b6000610e916007611aeb565b90506000610e9e8261072c565b90506000610eab83610a86565b90506000610eb884610c06565b90506000838383604051602001610ed193929190612f60565b60405160208183030381529060405290506000600882604051602001610ef8929190612f91565b60405160208183030381529060405290506000610f3d83610f1884611af9565b604051602001610f29929190613004565b604051602081830303815290604052611af9565b9050600081604051602001610f52919061306b565b6040516020818303038152906040529050610fa16040518060400160405280601581526020017f0a2d2d2d2d2d2d2d2d2d2d2d2d2d2d2d2d2d2d2d2d000000000000000000000081525061111a565b610faa8161111a565b610fe86040518060400160405280601581526020017f2d2d2d2d2d2d2d2d2d2d2d2d2d2d2d2d2d2d2d2d0a000000000000000000000081525061111a565b6001600c6000828254610ffb919061346c565b9250508190555061100c3389611c98565b6110168882611cb6565b6110206007611d2a565b61104360405180606001604052806025815260200161380d602591398933611d40565b7febb98688741ffa4c7589bf325de30cf7becb63de567842e1ccdb6cb949fdc82c33896040516110749291906130f4565b60405180910390a15050505050505050565b6000600560008473ffffffffffffffffffffffffffffffffffffffff1673ffffffffffffffffffffffffffffffffffffffff16815260200190815260200160002060008373ffffffffffffffffffffffffffffffffffffffff1673ffffffffffffffffffffffffffffffffffffffff16815260200190815260200160002060009054906101000a900460ff16905092915050565b6111b08160405160240161112e9190613138565b6040516020818303038152906040527f41304fac000000000000000000000000000000000000000000000000000000007bffffffffffffffffffffffffffffffffffffffffffffffffffffffff19166020820180517bffffffffffffffffffffffffffffffffffffffffffffffffffffffff8381831617835250505050611ddf565b50565b60007f01ffc9a7000000000000000000000000000000000000000000000000000000007bffffffffffffffffffffffffffffffffffffffffffffffffffffffff1916827bffffffffffffffffffffffffffffffffffffffffffffffffffffffff1916149050919050565b60008073ffffffffffffffffffffffffffffffffffffffff166002600084815260200190815260200160002060009054906101000a900473ffffffffffffffffffffffffffffffffffffffff1673ffffffffffffffffffffffffffffffffffffffff1614159050919050565b600033905090565b816004600083815260200190815260200160002060006101000a81548173ffffffffffffffffffffffffffffffffffffffff021916908373ffffffffffffffffffffffffffffffffffffffff160217905550808273ffffffffffffffffffffffffffffffffffffffff1661130483610874565b73ffffffffffffffffffffffffffffffffffffffff167f8c5be1e5ebec7d5bd14f71427d1e84f3dd0314c0f7b2291e5b200ac8c7c3b92560405160405180910390a45050565b60006113558261121d565b611394576040517f08c379a000000000000000000000000000000000000000000000000000000000815260040161138b90613218565b60405180910390fd5b600061139f83610874565b90508073ffffffffffffffffffffffffffffffffffffffff168473ffffffffffffffffffffffffffffffffffffffff16148061140e57508373ffffffffffffffffffffffffffffffffffffffff166113f68461052f565b73ffffffffffffffffffffffffffffffffffffffff16145b8061141f575061141e8185611086565b5b91505092915050565b8273ffffffffffffffffffffffffffffffffffffffff1661144882610874565b73ffffffffffffffffffffffffffffffffffffffff161461149e576040517f08c379a000000000000000000000000000000000000000000000000000000000815260040161149590613318565b60405180910390fd5b600073ffffffffffffffffffffffffffffffffffffffff168273ffffffffffffffffffffffffffffffffffffffff16141561150e576040517f08c379a0000000000000000000000000000000000000000000000000000000008152600401611505906131d8565b60405180910390fd5b611519838383611e08565b611524600082611291565b6001600360008573ffffffffffffffffffffffffffffffffffffffff1673ffffffffffffffffffffffffffffffffffffffff1681526020019081526020016000206000828254611574919061354d565b925050819055506001600360008473ffffffffffffffffffffffffffffffffffffffff1673ffffffffffffffffffffffffffffffffffffffff16815260200190815260200160002060008282546115cb919061346c565b92505081905550816002600083815260200190815260200160002060006101000a81548173ffffffffffffffffffffffffffffffffffffffff021916908373ffffffffffffffffffffffffffffffffffffffff160217905550808273ffffffffffffffffffffffffffffffffffffffff168473ffffffffffffffffffffffffffffffffffffffff167fddf252ad1be2c89b69c2b068fc378daa952ba7f163c4a11628f55a4df523b3ef60405160405180910390a4505050565b606060008214156116cc576040518060400160405280600181526020017f3000000000000000000000000000000000000000000000000000000000000000815250905061182c565b600082905060005b600082146116fe5780806116e790613669565b915050600a826116f791906134c2565b91506116d4565b60008167ffffffffffffffff811115611740577f4e487b7100000000000000000000000000000000000000000000000000000000600052604160045260246000fd5b6040519080825280601f01601f1916602001820160405280156117725781602001600182028036833780820191505090505b5090505b600085146118255760018261178b919061354d565b9150600a8561179a91906136b2565b60306117a6919061346c565b60f81b8183815181106117e2577f4e487b7100000000000000000000000000000000000000000000000000000000600052603260045260246000fd5b60200101907effffffffffffffffffffffffffffffffffffffffffffffffffffffffffffff1916908160001a905350600a8561181e91906134c2565b9450611776565b8093505050505b919050565b6000816040516020016118449190612f25565b6040516020818303038152906040528051906020012060001c9050919050565b8173ffffffffffffffffffffffffffffffffffffffff168373ffffffffffffffffffffffffffffffffffffffff1614156118d3576040517f08c379a00000000000000000000000000000000000000000000000000000000081526004016118ca906131f8565b60405180910390fd5b80600560008573ffffffffffffffffffffffffffffffffffffffff1673ffffffffffffffffffffffffffffffffffffffff16815260200190815260200160002060008473ffffffffffffffffffffffffffffffffffffffff1673ffffffffffffffffffffffffffffffffffffffff16815260200190815260200160002060006101000a81548160ff0219169083151502179055508173ffffffffffffffffffffffffffffffffffffffff168373ffffffffffffffffffffffffffffffffffffffff167f17307eab39ab6107e8899845ad3d59bd9653f200f220920489ca2b5937696c31836040516119c4919061311d565b60405180910390a3505050565b6119dc848484611428565b6119e884848484611e0d565b611a27576040517f08c379a0000000000000000000000000000000000000000000000000000000008152600401611a1e90613198565b60405180910390fd5b50505050565b606060405180602001604052806000815250905090565b6060611a4f8261121d565b611a8e576040517f08c379a0000000000000000000000000000000000000000000000000000000008152600401611a8590613338565b60405180910390fd5b6000611a98611a2d565b90506000815111611ab85760405180602001604052806000815250611ae3565b80611ac284611684565b604051602001611ad3929190612f3c565b6040516020818303038152906040525b915050919050565b600081600001549050919050565b6060600082511415611b1c57604051806020016040528060008152509050611c93565b60006040518060600160405280604081526020016138326040913990506000600360028551611b4b919061346c565b611b5591906134c2565b6004611b6191906134f3565b90506000602082611b72919061346c565b67ffffffffffffffff811115611bb1577f4e487b7100000000000000000000000000000000000000000000000000000000600052604160045260246000fd5b6040519080825280601f01601f191660200182016040528015611be35781602001600182028036833780820191505090505b509050818152600183018586518101602084015b81831015611c52576003830192508251603f8160121c168501518253600182019150603f81600c1c168501518253600182019150603f8160061c168501518253600182019150603f8116850151825360018201915050611bf7565b600389510660018114611c6c5760028114611c7c57611c87565b613d3d60f01b6002830352611c87565b603d60f81b60018303525b50505050508093505050505b919050565b611cb2828260405180602001604052806000815250611fa4565b5050565b611cbf8261121d565b611cfe576040517f08c379a0000000000000000000000000000000000000000000000000000000008152600401611cf590613298565b60405180910390fd5b80600660008481526020019081526020016000209080519060200190611d259291906121e0565b505050565b6001816000016000828254019250508190555050565b611dda838383604051602401611d589392919061315a565b6040516020818303038152906040527fe3849f79000000000000000000000000000000000000000000000000000000007bffffffffffffffffffffffffffffffffffffffffffffffffffffffff19166020820180517bffffffffffffffffffffffffffffffffffffffffffffffffffffffff8381831617835250505050611ddf565b505050565b60008151905060006a636f6e736f6c652e6c6f679050602083016000808483855afa5050505050565b505050565b6000611e2e8473ffffffffffffffffffffffffffffffffffffffff16611fff565b15611f97578373ffffffffffffffffffffffffffffffffffffffff1663150b7a02611e57611289565b8786866040518563ffffffff1660e01b8152600401611e7994939291906130a8565b602060405180830381600087803b158015611e9357600080fd5b505af1925050508015611ec457506040513d601f19601f82011682018060405250810190611ec19190612524565b60015b611f47573d8060008114611ef4576040519150601f19603f3d011682016040523d82523d6000602084013e611ef9565b606091505b50600081511415611f3f576040517f08c379a0000000000000000000000000000000000000000000000000000000008152600401611f3690613198565b60405180910390fd5b805181602001fd5b63150b7a0260e01b7bffffffffffffffffffffffffffffffffffffffffffffffffffffffff1916817bffffffffffffffffffffffffffffffffffffffffffffffffffffffff191614915050611f9c565b600190505b949350505050565b611fae8383612012565b611fbb6000848484611e0d565b611ffa576040517f08c379a0000000000000000000000000000000000000000000000000000000008152600401611ff190613198565b60405180910390fd5b505050565b600080823b905060008111915050919050565b600073ffffffffffffffffffffffffffffffffffffffff168273ffffffffffffffffffffffffffffffffffffffff161415612082576040517f08c379a0000000000000000000000000000000000000000000000000000000008152600401612079906132b8565b60405180910390fd5b61208b8161121d565b156120cb576040517f08c379a00000000000000000000000000000000000000000000000000000000081526004016120c2906131b8565b60405180910390fd5b6120d760008383611e08565b6001600360008473ffffffffffffffffffffffffffffffffffffffff1673ffffffffffffffffffffffffffffffffffffffff1681526020019081526020016000206000828254612127919061346c565b92505081905550816002600083815260200190815260200160002060006101000a81548173ffffffffffffffffffffffffffffffffffffffff021916908373ffffffffffffffffffffffffffffffffffffffff160217905550808273ffffffffffffffffffffffffffffffffffffffff16600073ffffffffffffffffffffffffffffffffffffffff167fddf252ad1be2c89b69c2b068fc378daa952ba7f163c4a11628f55a4df523b3ef60405160405180910390a45050565b8280546121ec90613637565b90600052602060002090601f01602090048101928261220e5760008555612255565b82601f1061222757805160ff1916838001178555612255565b82800160010185558215612255579182015b82811115612254578251825591602001919060010190612239565b5b5090506122629190612266565b5090565b5b8082111561227f576000816000905550600101612267565b5090565b6000612296612291846133e4565b6133b3565b9050828152602081018484840111156122ae57600080fd5b6122b98482856135f5565b509392505050565b6000813590506122d0816137b0565b92915050565b6000813590506122e5816137c7565b92915050565b6000813590506122fa816137de565b92915050565b60008151905061230f816137de565b92915050565b600082601f83011261232657600080fd5b8135612336848260208601612283565b91505092915050565b60008135905061234e816137f5565b92915050565b60006020828403121561236657600080fd5b6000612374848285016122c1565b91505092915050565b6000806040838503121561239057600080fd5b600061239e858286016122c1565b92505060206123af858286016122c1565b9150509250929050565b6000806000606084860312156123ce57600080fd5b60006123dc868287016122c1565b93505060206123ed868287016122c1565b92505060406123fe8682870161233f565b9150509250925092565b6000806000806080858703121561241e57600080fd5b600061242c878288016122c1565b945050602061243d878288016122c1565b935050604061244e8782880161233f565b925050606085013567ffffffffffffffff81111561246b57600080fd5b61247787828801612315565b91505092959194509250565b6000806040838503121561249657600080fd5b60006124a4858286016122c1565b92505060206124b5858286016122d6565b9150509250929050565b600080604083850312156124d257600080fd5b60006124e0858286016122c1565b92505060206124f18582860161233f565b9150509250929050565b60006020828403121561250d57600080fd5b600061251b848285016122eb565b91505092915050565b60006020828403121561253657600080fd5b600061254484828501612300565b91505092915050565b60006020828403121561255f57600080fd5b600061256d8482850161233f565b91505092915050565b61257f81613581565b82525050565b61258e81613593565b82525050565b600061259f82613429565b6125a9818561343f565b93506125b9818560208601613604565b6125c28161379f565b840191505092915050565b60006125d882613434565b6125e28185613450565b93506125f2818560208601613604565b6125fb8161379f565b840191505092915050565b600061261182613434565b61261b8185613461565b935061262b818560208601613604565b80840191505092915050565b6000815461264481613637565b61264e8186613461565b94506001821660008114612669576001811461267a576126ad565b60ff198316865281860193506126ad565b61268385613414565b60005b838110156126a557815481890152600182019150602081019050612686565b838801955050505b50505092915050565b60006126c3603283613450565b91507f4552433732313a207472616e7366657220746f206e6f6e20455243373231526560008301527f63656976657220696d706c656d656e74657200000000000000000000000000006020830152604082019050919050565b6000612729601c83613450565b91507f4552433732313a20746f6b656e20616c7265616479206d696e746564000000006000830152602082019050919050565b6000612769600a83613461565b91507f54484952445f574f5244000000000000000000000000000000000000000000006000830152600a82019050919050565b60006127a9602483613450565b91507f4552433732313a207472616e7366657220746f20746865207a65726f2061646460008301527f72657373000000000000000000000000000000000000000000000000000000006020830152604082019050919050565b600061280f601983613450565b91507f4552433732313a20617070726f766520746f2063616c6c6572000000000000006000830152602082019050919050565b600061284f606383613461565b91507f222c20226465736372697074696f6e223a20224120686967686c79206163636c60008301527f61696d656420636f6c6c656374696f6e206f6620737175617265732e222c202260208301527f696d616765223a2022646174613a696d6167652f7376672b786d6c3b6261736560408301527f36342c00000000000000000000000000000000000000000000000000000000006060830152606382019050919050565b6000612901600b83613461565b91507f5345434f4e445f574f52440000000000000000000000000000000000000000006000830152600b82019050919050565b6000612941602c83613450565b91507f4552433732313a206f70657261746f7220717565727920666f72206e6f6e657860008301527f697374656e7420746f6b656e00000000000000000000000000000000000000006020830152604082019050919050565b60006129a7600d83613461565b91507f3c2f746578743e3c2f7376673e000000000000000000000000000000000000006000830152600d82019050919050565b60006129e7603883613450565b91507f4552433732313a20617070726f76652063616c6c6572206973206e6f74206f7760008301527f6e6572206e6f7220617070726f76656420666f7220616c6c00000000000000006020830152604082019050919050565b6000612a4d602a83613450565b91507f4552433732313a2062616c616e636520717565727920666f7220746865207a6560008301527f726f2061646472657373000000000000000000000000000000000000000000006020830152604082019050919050565b6000612ab3602983613450565b91507f4552433732313a206f776e657220717565727920666f72206e6f6e657869737460008301527f656e7420746f6b656e00000000000000000000000000000000000000000000006020830152604082019050919050565b6000612b19602e83613450565b91507f45524337323155524953746f726167653a2055524920736574206f66206e6f6e60008301527f6578697374656e7420746f6b656e0000000000000000000000000000000000006020830152604082019050919050565b6000612b7f600283613461565b91507f227d0000000000000000000000000000000000000000000000000000000000006000830152600282019050919050565b6000612bbf602083613450565b91507f4552433732313a206d696e7420746f20746865207a65726f20616464726573736000830152602082019050919050565b6000612bff603183613450565b91507f45524337323155524953746f726167653a2055524920717565727920666f722060008301527f6e6f6e6578697374656e7420746f6b656e0000000000000000000000000000006020830152604082019050919050565b6000612c65602c83613450565b91507f4552433732313a20617070726f76656420717565727920666f72206e6f6e657860008301527f697374656e7420746f6b656e00000000000000000000000000000000000000006020830152604082019050919050565b6000612ccb602983613450565b91507f4552433732313a207472616e73666572206f6620746f6b656e2074686174206960008301527f73206e6f74206f776e00000000000000000000000000000000000000000000006020830152604082019050919050565b6000612d31602f83613450565b91507f4552433732314d657461646174613a2055524920717565727920666f72206e6f60008301527f6e6578697374656e7420746f6b656e00000000000000000000000000000000006020830152604082019050919050565b6000612d97600a83613461565b91507f7b226e616d65223a2022000000000000000000000000000000000000000000006000830152600a82019050919050565b6000612dd7602183613450565b91507f4552433732313a20617070726f76616c20746f2063757272656e74206f776e6560008301527f72000000000000000000000000000000000000000000000000000000000000006020830152604082019050919050565b6000612e3d600a83613461565b91507f46495253545f574f5244000000000000000000000000000000000000000000006000830152600a82019050919050565b6000612e7d601d83613461565b91507f646174613a6170706c69636174696f6e2f6a736f6e3b6261736536342c0000006000830152601d82019050919050565b6000612ebd603183613450565b91507f4552433732313a207472616e736665722063616c6c6572206973206e6f74206f60008301527f776e6572206e6f7220617070726f7665640000000000000000000000000000006020830152604082019050919050565b612f1f816135eb565b82525050565b6000612f318284612606565b915081905092915050565b6000612f488285612606565b9150612f548284612606565b91508190509392505050565b6000612f6c8286612606565b9150612f788285612606565b9150612f848284612606565b9150819050949350505050565b6000612f9d8285612637565b9150612fa98284612606565b9150612fb48261299a565b91508190509392505050565b6000612fcb8261275c565b9150612fd78284612606565b915081905092915050565b6000612fed826128f4565b9150612ff98284612606565b915081905092915050565b600061300f82612d8a565b915061301b8285612606565b915061302682612842565b91506130328284612606565b915061303d82612b72565b91508190509392505050565b600061305482612e30565b91506130608284612606565b915081905092915050565b600061307682612e70565b91506130828284612606565b915081905092915050565b60006020820190506130a26000830184612576565b92915050565b60006080820190506130bd6000830187612576565b6130ca6020830186612576565b6130d76040830185612f16565b81810360608301526130e98184612594565b905095945050505050565b60006040820190506131096000830185612576565b6131166020830184612f16565b9392505050565b60006020820190506131326000830184612585565b92915050565b6000602082019050818103600083015261315281846125cd565b905092915050565b6000606082019050818103600083015261317481866125cd565b90506131836020830185612f16565b6131906040830184612576565b949350505050565b600060208201905081810360008301526131b1816126b6565b9050919050565b600060208201905081810360008301526131d18161271c565b9050919050565b600060208201905081810360008301526131f18161279c565b9050919050565b6000602082019050818103600083015261321181612802565b9050919050565b6000602082019050818103600083015261323181612934565b9050919050565b60006020820190508181036000830152613251816129da565b9050919050565b6000602082019050818103600083015261327181612a40565b9050919050565b6000602082019050818103600083015261329181612aa6565b9050919050565b600060208201905081810360008301526132b181612b0c565b9050919050565b600060208201905081810360008301526132d181612bb2565b9050919050565b600060208201905081810360008301526132f181612bf2565b9050919050565b6000602082019050818103600083015261331181612c58565b9050919050565b6000602082019050818103600083015261333181612cbe565b9050919050565b6000602082019050818103600083015261335181612d24565b9050919050565b6000602082019050818103600083015261337181612dca565b9050919050565b6000602082019050818103600083015261339181612eb0565b9050919050565b60006020820190506133ad6000830184612f16565b92915050565b6000604051905081810181811067ffffffffffffffff821117156133da576133d9613770565b5b8060405250919050565b600067ffffffffffffffff8211156133ff576133fe613770565b5b601f19601f8301169050602081019050919050565b60008190508160005260206000209050919050565b600081519050919050565b600081519050919050565b600082825260208201905092915050565b600082825260208201905092915050565b600081905092915050565b6000613477826135eb565b9150613482836135eb565b9250827fffffffffffffffffffffffffffffffffffffffffffffffffffffffffffffffff038211156134b7576134b66136e3565b5b828201905092915050565b60006134cd826135eb565b91506134d8836135eb565b9250826134e8576134e7613712565b5b828204905092915050565b60006134fe826135eb565b9150613509836135eb565b9250817fffffffffffffffffffffffffffffffffffffffffffffffffffffffffffffffff0483118215151615613542576135416136e3565b5b828202905092915050565b6000613558826135eb565b9150613563836135eb565b925082821015613576576135756136e3565b5b828203905092915050565b600061358c826135cb565b9050919050565b60008115159050919050565b60007fffffffff0000000000000000000000000000000000000000000000000000000082169050919050565b600073ffffffffffffffffffffffffffffffffffffffff82169050919050565b6000819050919050565b82818337600083830152505050565b60005b83811015613622578082015181840152602081019050613607565b83811115613631576000848401525b50505050565b6000600282049050600182168061364f57607f821691505b6020821081141561366357613662613741565b5b50919050565b6000613674826135eb565b91507fffffffffffffffffffffffffffffffffffffffffffffffffffffffffffffffff8214156136a7576136a66136e3565b5b600182019050919050565b60006136bd826135eb565b91506136c8836135eb565b9250826136d8576136d7613712565b5b828206905092915050565b7f4e487b7100000000000000000000000000000000000000000000000000000000600052601160045260246000fd5b7f4e487b7100000000000000000000000000000000000000000000000000000000600052601260045260246000fd5b7f4e487b7100000000000000000000000000000000000000000000000000000000600052602260045260246000fd5b7f4e487b7100000000000000000000000000000000000000000000000000000000600052604160045260246000fd5b6000601f19601f8301169050919050565b6137b981613581565b81146137c457600080fd5b50565b6137d081613593565b81146137db57600080fd5b50565b6137e78161359f565b81146137f257600080fd5b50565b6137fe816135eb565b811461380957600080fd5b5056fe416e204e465420772f20494420257320686173206265656e206d696e74656420746f2025734142434445464748494a4b4c4d4e4f505152535455565758595a6162636465666768696a6b6c6d6e6f707172737475767778797a303132333435363738392b2fa2646970667358221220c1c1c9b6a0bacb771d1ca7a8d4e50ee202032c87fdc9476c748b4fea1ecffe3064736f6c634300080000333c73766720786d6c6e733d27687474703a2f2f7777772e77332e6f72672f323030302f73766727207072657365727665417370656374526174696f3d27784d696e594d696e206d656574272076696577426f783d273020302033353020333530273e3c7374796c653e2e62617365207b2066696c6c3a2077686974653b20666f6e742d66616d696c793a2073657269663b20666f6e742d73697a653a20323470783b207d3c2f7374796c653e3c726563742077696474683d273130302527206865696768743d2731303025272066696c6c3d27626c61636b27202f3e3c7465787420783d273530252720793d273530252720636c6173733d27626173652720646f6d696e616e742d626173656c696e653d276d6964646c652720746578742d616e63686f723d276d6964646c65273e54686973206973206d79204e465420636f6e74726163742e204c6574277320676f6f6f21",
  "linkReferences": {},
  "deployedLinkReferences": {}
}